{
  "contractName": "AssetMatcherCollection",
  "abi": [
    {
      "inputs": [
        {
          "components": [
            {
              "internalType": "bytes4",
              "name": "assetClass",
              "type": "bytes4"
            },
            {
              "internalType": "bytes",
              "name": "data",
              "type": "bytes"
            }
          ],
          "internalType": "struct LibAsset.AssetType",
          "name": "leftAssetType",
          "type": "tuple"
        },
        {
          "components": [
            {
              "internalType": "bytes4",
              "name": "assetClass",
              "type": "bytes4"
            },
            {
              "internalType": "bytes",
              "name": "data",
              "type": "bytes"
            }
          ],
          "internalType": "struct LibAsset.AssetType",
          "name": "rightAssetType",
          "type": "tuple"
        }
      ],
      "name": "matchAssets",
      "outputs": [
        {
          "components": [
            {
              "internalType": "bytes4",
              "name": "assetClass",
              "type": "bytes4"
            },
            {
              "internalType": "bytes",
              "name": "data",
              "type": "bytes"
            }
          ],
          "internalType": "struct LibAsset.AssetType",
          "name": "",
          "type": "tuple"
        }
      ],
      "stateMutability": "view",
      "type": "function"
    }
  ],
  "bytecode": "0x608060405234801561001057600080fd5b506107c1806100206000396000f3fe608060405234801561001057600080fd5b506004361061002b5760003560e01c80636d3f7cb014610030575b600080fd5b61004a6004803603810190610045919061051a565b610060565b604051610057919061060b565b60405180910390f35b6100686103c2565b7f73ad2146b3d3a286642c794379d750360a2d53a3459a11b3e5d6cc900f55f44a7bffffffffffffffffffffffffffffffffffffffffffffffffffffffff191682600001517bffffffffffffffffffffffffffffffffffffffffffffffffffffffff1916148061013957507fd8f960c1450658267efb07308b4050c9e705cea25a53b560236c88cb149696be7bffffffffffffffffffffffffffffffffffffffffffffffffffffffff191682600001517bffffffffffffffffffffffffffffffffffffffffffffffffffffffff1916145b806101a557507f973bb64086f173ec8099b7ed3d43da984f4a332e4417a08bc6a286e6402b05867bffffffffffffffffffffffffffffffffffffffffffffffffffffffff191682600001517bffffffffffffffffffffffffffffffffffffffffffffffffffffffff1916145b8061021157507f1cdfaa400bc064c91b5cc20e571cfcc92103980be96e01fb36dda1962d8d78cb7bffffffffffffffffffffffffffffffffffffffffffffffffffffffff191682600001517bffffffffffffffffffffffffffffffffffffffffffffffffffffffff1916145b8061027d57507f3e6b89d41ae6cce5def8a4064ada8dba77d057c7a0113741d26b5e4eccdd2a7e7bffffffffffffffffffffffffffffffffffffffffffffffffffffffff191682600001517bffffffffffffffffffffffffffffffffffffffffffffffffffffffff1916145b15610336576000836020015180602001905181019061029c91906104f1565b9050600083602001518060200190518101906102b891906104f1565b90508073ffffffffffffffffffffffffffffffffffffffff168273ffffffffffffffffffffffffffffffffffffffff16141561033357604051806040016040528085600001517bffffffffffffffffffffffffffffffffffffffffffffffffffffffff191681526020018560200151815250925050506103bc565b50505b6040518060400160405280600060e01b7bffffffffffffffffffffffffffffffffffffffffffffffffffffffff19168152602001600067ffffffffffffffff8111801561038257600080fd5b506040519080825280601f01601f1916602001820160405280156103b55781602001600182028036833780820191505090505b5081525090505b92915050565b604051806040016040528060007bffffffffffffffffffffffffffffffffffffffffffffffffffffffff19168152602001606081525090565b600061040e6104098461065e565b61062d565b90508281526020810184848401111561042657600080fd5b610431848285610708565b509392505050565b6000815190506104488161075d565b92915050565b60008135905061045d81610774565b92915050565b600082601f83011261047457600080fd5b81356104848482602086016103fb565b91505092915050565b60006040828403121561049f57600080fd5b6104a9604061062d565b905060006104b98482850161044e565b600083015250602082013567ffffffffffffffff8111156104d957600080fd5b6104e584828501610463565b60208301525092915050565b60006020828403121561050357600080fd5b600061051184828501610439565b91505092915050565b6000806040838503121561052d57600080fd5b600083013567ffffffffffffffff81111561054757600080fd5b6105538582860161048d565b925050602083013567ffffffffffffffff81111561057057600080fd5b61057c8582860161048d565b9150509250929050565b61058f816106bc565b82525050565b60006105a08261068e565b6105aa8185610699565b93506105ba818560208601610717565b6105c38161074c565b840191505092915050565b60006040830160008301516105e66000860182610586565b50602083015184820360208601526105fe8282610595565b9150508091505092915050565b6000602082019050818103600083015261062581846105ce565b905092915050565b6000604051905081810181811067ffffffffffffffff821117156106545761065361074a565b5b8060405250919050565b600067ffffffffffffffff8211156106795761067861074a565b5b601f19601f8301169050602081019050919050565b600081519050919050565b600082825260208201905092915050565b60006106b5826106e8565b9050919050565b60007fffffffff0000000000000000000000000000000000000000000000000000000082169050919050565b600073ffffffffffffffffffffffffffffffffffffffff82169050919050565b82818337600083830152505050565b60005b8381101561073557808201518184015260208101905061071a565b83811115610744576000848401525b50505050565bfe5b6000601f19601f8301169050919050565b610766816106aa565b811461077157600080fd5b50565b61077d816106bc565b811461078857600080fd5b5056fea2646970667358221220c5f4ef12d1ee1c12d911832a3d1e6079f75ff327256a061c87321e31edc3976664736f6c63430007060033",
  "immutableReferences": {},
  "source": "// SPDX-License-Identifier: MIT\r\n\r\npragma solidity 0.7.6;\r\npragma abicoder v2;\r\n\r\nimport \"@rarible/exchange-interfaces/contracts/IAssetMatcher.sol\";\r\nimport \"@rarible/lazy-mint/contracts/erc-721/LibERC721LazyMint.sol\";\r\nimport \"@rarible/lazy-mint/contracts/erc-1155/LibERC1155LazyMint.sol\";\r\n\r\ncontract AssetMatcherCollection is IAssetMatcher {\r\n    function matchAssets(LibAsset.AssetType memory leftAssetType, LibAsset.AssetType memory rightAssetType) external view override returns (LibAsset.AssetType memory) {\r\n        if (\r\n            (rightAssetType.assetClass == LibAsset.ERC721_ASSET_CLASS) ||\r\n            (rightAssetType.assetClass == LibERC721LazyMint.ERC721_LAZY_ASSET_CLASS) ||\r\n            (rightAssetType.assetClass == LibAsset.ERC1155_ASSET_CLASS) ||\r\n            (rightAssetType.assetClass == LibERC1155LazyMint.ERC1155_LAZY_ASSET_CLASS) ||\r\n            (rightAssetType.assetClass == LibAsset.CRYPTO_PUNKS) \r\n        ) {\r\n           (address leftToken) = abi.decode(leftAssetType.data, (address));\r\n              (address rightToken) = abi.decode(rightAssetType.data, (address));\r\n                if (leftToken == rightToken) {\r\n                    return LibAsset.AssetType(rightAssetType.assetClass, rightAssetType.data);\r\n                }\r\n        }\r\n        return LibAsset.AssetType(0, new bytes(0));\r\n    }\r\n}",
  "sourcePath": "C:\\Users\\omrel\\Desktop\\BalanceNetworkNFT-TotalContracts\\Matches\\contracts\\AssetMatcherCollection.sol",
  "compiler": {
    "name": "solc",
    "version": "0.7.6+commit.7338295f.Emscripten.clang"
  },
  "schemaVersion": "3.4.11",
  "updatedAt": "2022-12-29T13:52:56.164Z",
  "devdoc": {
    "kind": "dev",
    "methods": {},
    "version": 1
  },
  "userdoc": {
    "kind": "user",
    "methods": {},
    "version": 1
  }
}