{
  "contractName": "IExchangeV2",
  "abi": [
    {
      "inputs": [
        {
          "internalType": "bytes4",
          "name": "assetType",
          "type": "bytes4"
        },
        {
          "internalType": "address",
          "name": "matcher",
          "type": "address"
        }
      ],
      "name": "setAssetMatcher",
      "outputs": [],
      "stateMutability": "nonpayable",
      "type": "function"
    }
  ],
  "bytecode": "0x608060405234801561001057600080fd5b5060d18061001f6000396000f3fe6080604052348015600f57600080fd5b506004361060285760003560e01c8063b39deb4614602d575b600080fd5b609560048036036040811015604157600080fd5b8101908080357bffffffffffffffffffffffffffffffffffffffffffffffffffffffff19169060200190929190803573ffffffffffffffffffffffffffffffffffffffff1690602001909291905050506097565b005b505056fea264697066735822122040beee91ab57603ec84e11ece99469209ca4c512feabeb1b974c557c158afb2264736f6c63430007060033",
  "immutableReferences": {},
  "source": "//SPDX-LICENSE-IDENTIFIER: MIT\r\n\r\npragma solidity 0.7.6;\r\n\r\ncontract IExchangeV2 {\r\n    function setAssetMatcher(bytes4 assetType, address matcher) external {\r\n        }\r\n}",
  "sourcePath": "C:\\Users\\omrel\\Desktop\\BalanceNetworkNFT-TotalContracts\\Matches\\contracts\\IExchangeV2.sol",
  "compiler": {
    "name": "solc",
    "version": "0.7.6+commit.7338295f.Emscripten.clang"
  },
  "schemaVersion": "3.4.11",
  "updatedAt": "2022-12-29T13:52:56.169Z",
  "devdoc": {
    "kind": "dev",
    "methods": {},
    "version": 1
  },
  "userdoc": {
    "kind": "user",
    "methods": {},
    "version": 1
  }
}